:10000000D82D0020410200003D0200003D0200000A
:1000100000000000000000000000000000000000E0
:100020000000000000000000000000003D02000091
:1000300000000000000000003D020000350200004A
:100040003D0200003D0200003D0200003D020000B4
:100050003D0200003D0200003D0200003D020000A4
:100060003D0200003D0200003D0200003D02000094
:100070003D0200003D0200003D0200003D02000084
:100080003D0200003D0200003D0200003D02000074
:100090003D0200003D0200003D0200003D02000064
:1000A0003D0200003D0200003D0200003D02000054
:1000B00000000000074B1A00197DC907FCD520215C
:1000C000FF31198304494008D8611980137DDB078B
:1000D000FCD570470040004102A5FFFF10B50400A9
:1000E000044B9C4200D910BD20000134FFF7E2FF11
:1000F000FF34F5E7FFFF0300002330B59A4200D13B
:1001000030BD9C000D5901330551F7E7F0B580254E
:10011000104B114E5C68114FAC435C60002A00D15B
:10012000F0BD1400102A00D91024121B1E801D7D62
:10013000ED07FCD5A400A44600240D590551043454
:100140006445FAD1001909191F801C7DE407FCD50C
:10015000E4E7C0460040004144A5FFFF04A5FFFFBF
:10016000802270B5002304000D005200E958E058C9
:10017000814203D104339342F8D170BD2000FFF7D0
:1001800099FF402229002000FFF7C0FFF5E700009B
:1001900010B572B61E221E494B6893431A00042301
:1001A00013434B6062B600221A4B1A830132FF32AE
:1001B000D9681142FCD08021174A89001268920E3A
:1001C00092020A43DA61802252001100D86810427C
:1001D000FCD002221A83DA680A42FCD00F4A104B84
:1001E0001A62042258681040FCD1C0220D4C0E4BFC
:1001F0000E4963600B6A12061B021B0A13430B6253
:1002000007233022A0602360094B1A6010BDC0464E
:1002100000400041000C0040206080000709010000
:100220000018004010E000E0E703000000ED00E0EF
:100230000000002010B500F0EBF810BDFEE7000054
:100240001F48204970B50023884232D100211E4B3F
:100250001E4A934232D3FF221D4B822093431D4AF4
:100260000321936002220C2508243026C005C378A0
:100270008B431343C370C378AB432343C370164B04
:10028000987BB0430600202030439873987BA843A6
:1002900004439C73987B884302439A7380230F4ADC
:1002A00051680B43536000F057FEFEE7C458043317
:1002B00014600B4CCA18A242F8D3C7E702C3C8E7C0
:1002C000101B000000000020D0010020D80D0020ED
:1002D0000000000000ED00E0000400440040004188
:1002E000D0010020F0B5124E7388002B17D10824DE
:1002F0001A0292B215B2AC4667465500AAB2002F58
:1003000002DA0C4A5540AAB2013CA4B2002CF1D149
:100310005C0032538022013352009342E7D10B0A32
:1003200058404000305A0902484080B2F0BDC046F3
:10033000D00100202110000001230002984200D8C3
:100340007047C0460133F9E770B505001C24002052
:100350000F260B00E3403340002A09D1002B07D1C0
:10036000002C0BD0002809D1043C231DF1D170BD15
:10037000092B03DD37332B540130F5E73033FAE72F
:10038000054B064A1A60BFF34F8F054B054ADA60EA
:10039000BFF34F8FFEE7C046FC7F0020EF6926F0D9
:1003A00000ED00E00400FA0510B50B4A1368002BBD
:1003B0000ED10A4911600A490A6801320A600949E6
:1003C0000868002806D0824204D30B60FFF7D8FFEC
:1003D000013B136010BDC046D8030020DC050000BF
:1003E000040A0020080A0020054B064A1A60BFF3E1
:1003F0004F8F054B054ADA60BFF34F8FFEE7C046CB
:10040000FC7F0020EF6916F000ED00E00400FA0523
:100410000F4A1368013313600E4A1168002904D093
:100420008B4201D1002313607047DBB2002BFBD15C
:1004300009480A4A037819000A39C9B2F02902D9D1
:1004400011784942117012789B180370ECE7C0468E
:10045000D0030020D4030020050000200400002069
:10046000054B064A1B681168994203D2FA21C9005C
:100470005B1813607047C046D0030020D4030020EF
:100480007047704701220F2070B536490B7813432F
:100490000B70354B19788143197006211C78214364
:1004A000197032490C7822430A701A7802401A7087
:1004B000602219780A431A7040222D4B1A602D4A87
:1004C00053685B07FCD482230122DB0519780A43B9
:1004D0001A709A78D207FCD41F2027490B685B0B4F
:1004E0000340834200D105238222D205148D234D7F
:1004F00003409B012C40234313850B689B0C034056
:100500001F2B00D1023B1F24108D2340A043034327
:10051000072013850A68D20D0240824200D10322CF
:100520008223DB05198D02401548120301400A435E
:100530007F211A851A7813480A401A700422197804
:100540000A430C211A7058621A898A431A811A893F
:100550000B398A431A8180220021520001F0D3F91D
:1005600070BDC046582800403C2800405928004033
:100570009018004000180040206080003FF8FFFF06
:10058000FF8FFFFF500A0020F7B51C008223DB0518
:100590005B6A06000F0015000193002C05D144345E
:1005A00054432D4BE418FFF7FFFE63782278934203
:1005B00010D2D51ABD4200D93D00002E08D0211D11
:1005C000C9182A00300001F095F963785B1963704F
:1005D0002800FEBD019BA1786A01D318002911D122
:1005E000211D196059681D48890B89035960596894
:1005F000014059601A495518402128790143297151
:100600000121A1708221C9055118019115490025C8
:100610005218127AD207DBD55D68A278EDB2257048
:10062000022A04D11968201D2A0001F063F9BD4295
:1006300000D93D00002E0CD06570211D2A0030002D
:1006400001F058F90122019BFF331A720023A370B5
:10065000BEE76670F6E7C046500B0020FF3F00F093
:1006600000010041FF00004110B50023FFF78CFF9F
:1006700010BDF8B505000C0016001F00002C00D1BD
:10068000F8BD210028003B003200FFF77DFF241A4F
:100690002D18F3E7F8B50E008221C9054C6A550103
:1006A0002C19002B1BD063695B005B086361206120
:1006B0006369B2049B0B920C9B03134363616369F0
:1006C000154A1648134063612A1802238021150039
:1006D000137291712A7A1A42FCD03000F8BD0121C0
:1006E00063695B005B0F03339940B14208D8043A59
:1006F000531E9A416369D2075B005B081343D5E739
:1007000044275743064A0437BF1801003200380017
:1007100001F0F0F83800CAE7FF3F00F0FF000041A9
:10072000500B002010B50023FFF7B4FF10BD0000F0
:1007300010B5054B1B888B4200D90B000022190015
:10074000FFF7F0FF10BDC046FE03002007B50021F3
:100750006B460A00D81D0170FFF7E4FF07BD0000DB
:10076000F0B582249BB0FFF71FFE0823E405A28B9F
:10077000BD491A4003922DD011224020A383783323
:10078000A372C0244A7088714B71B84BB84D5A6837
:10079000A4052A4022435A605A692A401443B54AA4
:1007A0005C611A60B44AB54C1A615A6814408022E0
:1007B000920222435A605A68920B92035A600022B6
:1007C000AF4B48711A70AE4B1878431E9841C0B2B7
:1007D0001BB0F0BD10200B7A0342F4D0A94A087276
:1007E0009279A84F0192A74A019DD279A54B009218
:1007F00012022A4312B202926A46A24D12892E7A3E
:10080000ED7ABF7A2D023D4394469F4F9D4A9B88C7
:10081000527A3D804025120216439C4F36B2B2B246
:100820004D71BB4200D1B8E137D881246400A342A6
:1008300000D1C8E114D8822B00D193E105D8802BD8
:1008400000D389E120238B71BDE7802252009342BF
:10085000F8D00222FF329342F4D1FFF777FFB2E7DC
:100860008B48834204D00BD8A222FF329342E9D1B5
:100870000021082208A801F046F8082108A8CEE0C7
:10088000C02080008342DDD0E7D840388342D9D1F0
:10089000072AD7D1AA217F48C1E07F4A9342DCD002
:1008A00000D99CE07D4A934215D8013A934200D387
:1008B000AFE07B4A9342DBD06032FF329342C1D13A
:1008C000FFF744FF8023029A5B4213438222DBB28C
:1008D000D205937277E7882269481201934200D1CA
:1008E000A9E180329342ADD16B461B7A3027037069
:1008F000FFF72CFFA02303225B00E254C0225B4BD6
:100900005B49586C92050840104358644620FF30FC
:100910002554644880261864902040002754586B62
:100920000840104358639220400026545E488026B9
:100930001863B02040002554586F08405867B22013
:100940004000265403263C302654FC3884469C4400
:10095000604606680E4016430660A626FF36A5557B
:100960001E005248A0363060C0267600A7551F00F2
:1009700094373E6880200E4016433E60C2267600C3
:10098000A0551E004A4F90363760E0264427760077
:10099000A7550436A555A055C42084469C446046FE
:1009A00006680E4016430660D42084469C44604688
:1009B00006680E4016430660F02680207600A75594
:1009C0000436A555A0551C00E4342068F4330840D3
:1009D00010432060186801400A431A60F3E6354A64
:1009E000934200D139E705D8334A934200D134E726
:1009F000324A30E7324A934200D12EE7314A9342DD
:100A000000D115E1304A934200D01BE708212F485E
:100A100005E080235B009C4504D112212C48FFF7A0
:100A200087FED0E680239B009C4502D1992129486E
:100A3000F5E7009B032B7CD1019B032B00D901E739
:100A400008AC48220021200000F05DFF6B461B78B7
:100A50006370019B002B41D1043323701E4B6380D4
:100A600021782000DBE7C046FF000041500A00204B
:100A7000FFFFFF8F100A0020540B0020FF3F00F003
:100A8000DC0300200C0A0020FE030020020300000B
:100A9000A1020000F40000202109000081060000EE
:100AA000A1030000DC0B0020980B0020A80C002004
:100AB000640C002021200000210A0000210B00000E
:100AC00021220000A1FE0000A1210000EC00002076
:100AD00034190000440000200904000004AE320074
:100AE000564B23CB23C200252F001B681360AB009D
:100AF000534AF358D01919680122FFF725FC013534
:100B00003F18042DF3D100254D4B4E4ADD554E4B79
:100B10009B799B009E58300000F0FDFE01304000A4
:100B20002070735D6A1C002B9AD05100635415002D
:100B3000F7E7009B0F2B02D1392144486FE7009B58
:100B4000212B02D10921424869E7009B222B00D0CA
:100B500078E621213F4862E76B469B8908A803801D
:100B600002215CE76B469B8908A803800F231A408B
:100B7000072A00D966E60832413352011E4206D0E8
:100B80008223DB05D21893799B06DB0FE7E78223EC
:100B9000DB05D2189379DB06F7E76346002B00D01C
:100BA00050E60F331A40531E062B00D94AE6822323
:100BB00008325201DB05D218330602D520235371C7
:100BC0004BE6507149E66346002B00D03AE60F33FE
:100BD0001A40531E062B00D934E65201330614D5B1
:100BE00082231D49DB05D31852182021D0790842F1
:100BF00000D132E65171127A2A4200D12DE640220C
:100C0000FF331A723E3A5A7127E682231249DB05F6
:100C1000D3185218D179014200D11EE65071117AD1
:100C20002022114200D118E6FF331A721F3AEAE778
:100C3000002308A803800121F1E6C0462419000022
:100C4000DD0300207C1900000C0A002008000020B1
:100C5000E000002048190000FF00004110B5FFF738
:100C600011FC0022044B1A7082220223D205117853
:100C70000B43137010BDC046DC03002010B50C0000
:100C80000122FFF74FFD200010BD10B50C0001221E
:100C9000FFF748FD200010BD70B504000D00FFF700
:100CA0005FFD03000020834204D0022229002000BF
:100CB000FFF7DAFC70BD70B505000C00FFF750FDC2
:100CC000002807D00023022221002800FFF7D1FCD2
:100CD000200070BD0400FBE730B5030020251C1A7E
:100CE000A24200DC30BD0C78002C03D001311C7016
:100CF0000133F4E71D70FBE7F8B580220C00050016
:100D000092000021200000F0FEFD002D0CD13E22BB
:100D10004D49200000F0EEFDFF2355225B00E25418
:100D20004A4B9218E254F8BD7E2D25D86B1E3E2BFF
:100D300000D93F3B002B12D01802454E5B02021F28
:100D40005B42FC30B24206D814D0551DADB2510002
:100D5000C91861180D8101329042F3D1E3E7F02206
:100D60002100FF2022700A31621C8A42E4D01070F8
:100D70000132FAE7374DEAE7822D33D87F2DD2D101
:100D800031490B222B312000FFF7A6FF28237E3D9F
:100D9000E37280202F01304E3B1FF35820340003B4
:100DA000002B02D0180000F0B6FD3100030A637773
:100DB0000135030CA377ABB22077A376000E1B0A94
:100DC0001039E077E3760B22C9192000FFF784FF82
:100DD00067224D2352422274637422766376042D77
:100DE000D7D1A0E72B00833B012B0CD81A4A1B015B
:100DF000D318DD68280000F08EFD290002002000D5
:100E000000F078FD8FE7154B853D2902994200D906
:100E100089E7134B134A2360134B6360FE235B0087
:100E2000E2508023DB00A3618023A06880229B0125
:100E300003432000A3600D4B52006561E160226115
:100E4000E3612030DCE7C0468C190000FF010000A0
:100E5000FF030000FFFF0000501A0000FFFF030027
:100E60005546320A306FB10A57515D9E0A785118C3
:100E700070B516001D000A682E4B0C009A4251D125
:100E80002D4B4A689A424DD1FE2252002B4B8A5874
:100E90009A4247D18B689A0403D5294AC96991427D
:100EA00040D1DB0711D4802322695B009A420CD128
:100EB000E068C3B2002B08D1224B234AC3189342E7
:100EC00003D821002031FFF74BF9002D2BD0A36967
:100ED000002B28D029681D4A8B4206D0934201D8A6
:100EE000002901D001235B422B606369934219D82A
:100EF0000721012219408A40DB08EB18197AD2B287
:100F00000A4204D168680A4301301A7268606A684C
:100F10002B689A4206D3002E04D10D4B1B681E335A
:100F20000C4A136070BD002EFCD1094B1B682D3399
:100F3000FF33F5E75546320A57515D9E306FB10ACF
:100F40000A78511800A0FFFFFF9F03006304000010
:100F5000040A0020080A0020F8B5554CA368002BAD
:100F600000D0FEE70221534B1A698A431A61DA68FE
:100F70005207FCD5504A1A61022219690A431A61C4
:100F8000DA68D207FCD5DA689207FCD402211A6924
:100F90008A431A61DA685207FCD5082219690A43A4
:100FA0001A61022219690A4344491A610A68531CEA
:100FB00021D12022424BFF32188B02431A835868FA
:100FC000404A02435A60404ADA61404A1A801A7D18
:100FD000D207FCD53E4A1A801A7DD207FCD53D4A7D
:100FE0000A603D4A3D4911603D4A1A801A7DD20788
:100FF000FCD5FFF7F9F900223A4B1A709E68B60744
:10100000F60FFBD1FFF73CFA374B1F68374BFA1846
:10101000E8239B029A4213D8354B364D1B78DB07E9
:10102000DB0F08D02E60C023DB011A6882F308882A
:10103000A360384704E029682F4A914223D12B60EE
:10104000FFF7A6F8BFF35F8F62B6FFF707FE4020F9
:10105000FFF717FA80270A230126284DFF012B707E
:10106000FFF77EFB264C002807D02378002B03D106
:101070003800FFF706FA2E7026702378002B0ED06A
:1010800000F01AFAFCE729681E4B994204D0FA20B6
:101090002A604000FFF750F900232B60C3E7237854
:1010A000002BDDD1FF33C046013B002BFBD1D7E73E
:1010B00000ED00E000140040040027000040800024
:1010C00000400041800004000020400005A5FFFF13
:1010D00044A5FFFFFAC7E0D8044080005DFCFFFF95
:1010E00006A5FFFF001C00400460000000A0FFFFF9
:1010F00000080040FC7F0020EF6916F0040000208B
:1011000000040020EF6926F010B5054C12220021E2
:10111000200000F0F8FBF0232370E63BE37110BDE4
:101120003F06002070B5130006000C0015000020DB
:101130000A000121FFF728FA0023984206D02B006D
:1011400022001F213000FFF71FFA0123180070BD95
:1011500010B504220D210248FFF7E4FA10BDC04685
:101160009E01002010B50B480B4942790379120209
:101170001A4383791B041A43C3791B0613431A0AC3
:101180000B714A711A0C1B0E8A71CB71FFF7E0FFCD
:1011900010BDC046200600209E01002070B504222C
:1011A0000D00FFF7BFFA164C85420FD0FFF7ACFFDA
:1011B000012304222373134B9A700022DA701A71F0
:1011C0005A719A711A735A73FFF7CCFFFFF79CFF9D
:1011D00000232373637A217A1B020B43A17A09044B
:1011E0000B43E17A09061943491B0B0A217263720A
:1011F0000B0C090EA372E172FFF7B4FF70BDC0467D
:101200009E0100203F06002070B5184C14220500F6
:101210000021200000F077FB154A002D1FD021008F
:101220000823D07D08313F26527C32401C2A01D051
:10123000B24205D10F4A0C330A800522DBB2CA70D4
:10124000191C834200D9011CC9B2002D0BD0023BEE
:101250009BB21B0223802000FFF7A0FF70BDD07C53
:10126000211D0423DFE7013B2370F4E7040600207F
:10127000200600201C0A0000F0B5070000242B4BBC
:1012800085B0597C03AAD170997C9170D97C51703A
:10129000197D117002AA961C9A7D7270DB7D3370E5
:1012A0003388A34208D8FFF72FFF0022204B1A7380
:1012B000FFF758FF05B0F0BDFFF752FA0028F9D04C
:1012C000039B1C4DE3180193002F1FD02900180029
:1012D000FFF712FD8021042289002800FFF722FA7F
:1012E000134A0134517A137A09021943937A1B0481
:1012F0001943D37A1B060B430F495B18190A137263
:101300005172190C1B0E9172D372C9E780213B00F8
:10131000280005228900FFF7ACF9084B3A002900A4
:101320000198FFF7A5FDFFF79BF8D9E720060020FD
:101330009E0100200404002000FEFFFF5406002050
:10134000F0B585B000F0B8FA454E00220521300016
:10135000FFF7E8FE002858D0737A357A1B022B433A
:10136000B57A404C2D042B43F57A00272D061D43FA
:101370002B0A63722B0CA3722B0E2572E372F37B84
:101380001E2B1BD021D8122B41D013D8BB4215D015
:10139000032B31D0FFF7B8FE012305222373324B14
:1013A0009A700022DA701A715A719A711A73203287
:1013B0005A7307E01A2B39D01B2BEBD1FFF7A4FE91
:1013C00000232373FFF7CEFE1FE0282B34D00BD869
:1013D000232B35D0252BDDD1802324489B0243606D
:1013E000234B082103600EE02F2BE7D05A2B21D08E
:1013F0002A2BCFD1380020E0F37C191C122B00D906
:1014000012211948C9B2FFF7C9FE05B0F0BD194C49
:101410001949200018220830FFF75EFCF37C191CE4
:10142000242B00D92421C9B22000ECE73800FFF7B3
:10143000EBFEEAE70120FAE70120FFF71DFFE4E7F2
:101440000C260E49320001A800F054FAB54203D927
:1014500026726772A772E7720C2101A8D3E7C04613
:10146000200600209E0100203F06002018060020D4
:1014700000003E7FAC01002073190000CA1A000072
:1014800030B5EFF30883054C2360036883F30888C5
:101490004568A847236883F3088830BDCC0D002039
:1014A00007B5010001226846FEF74EFF0821684695
:1014B000FFF7E4FB07BD0000F7B57A230022814C5B
:1014C000814922600B7000920193FFF739FF7F4D35
:1014D00040212800FFF7E0FB7D4B18606B461B782E
:1014E0002B54002801D0FEF7BBFF7A4B009A1D60F9
:1014F000794B1A607848764B02681F68BA42E4D28A
:10150000744D29680B78FF2B37D0744E232B00D0F5
:10151000B4E06D4B1B78532B34D133680132013169
:1015200002602960BA1A9A4200D91A006C4D2068EC
:101530002A6000F0DFF9684829680368654ACB181B
:10154000013B036010684B1EC3181360634B654D6D
:101550001B682970C9B28B4203D9591A2068FFF75A
:10156000AAFBC0466A46584B12791A705B4B009A28
:101570001A60584A136801331360574A13680133DD
:101580001360B7E7522B04D131682068FFF77DFB69
:10159000E8E74F2B03D1336822681370E2E7482B4A
:1015A00003D1336822681380DCE7572B0AD14E4BF6
:1015B00022689A4202D14D48FEF763FF23683268E1
:1015C0001A60CFE76F2B04D101212068FFF756FB8B
:1015D000C8E7682B05D1022123681B8833603000DF
:1015E000F4E7772B04D1236804211B683360F6E706
:1015F000472B09D13068FFF743FF3D4B1B78002B89
:10160000B0D001213B48E1E7542BABD04E2BA9D001
:10161000562B02D12A213848D8E7582B05D13068FB
:10162000FEF75CFD03213548D0E7592B0DD1326818
:101630002068334B002A03D1186003213148C5E7E5
:1016400092081968FEF762FDF7E75A2B8AD13768CE
:1016500000262568EF19AF4209D101212A48FFF77A
:101660000DFB3000FFF71CFF03212848AEE7287868
:101670003100FEF737FE01350600ECE71A00303A7C
:10168000D1B2092904D833681B011343336070E7D2
:101690001A00413A052A03D83268373B1201F4E7B1
:1016A0001A00613A052A03D83268573B1201ECE769
:1016B0002C2B03D133682360009BE7E7024A1370A9
:1016C000FAE7C046C80D00207C0D0020840D0020E4
:1016D000740D0020780D0020800D0020D00D00201A
:1016E000D40D0020700D00200CED00E04000400003
:1016F000EC060020001B0000D61A0000021B0000B0
:10170000F0060020061B00000A1B00000C1B000056
:10171000F8B50300473304001A7840210300002085
:10172000FEF732FF002801D10020F8BD0023257903
:1017300023706BB2002BF7DB3F272000A61DF38F31
:101740002F404830C018611D3A0000F0D3F83F2305
:10175000F08F9D43C01980B2002D01D1F087E3E7DF
:101760000023F387E1E7F0B506000C001F0093B0FB
:1017700001923F25AC4203DC2500002F00D1403709
:101780003B0002AA2B43137002AB31002A00581C05
:1017900000F0B0F86B4640211A7902A80123FEF749
:1017A00079FF7619641BE4D113B0F0BD030010B5C6
:1017B00047331A78043148300023FFF7D4FF10BDB7
:1017C000F7B50400FFF7A4FF002841D023004833F9
:1017D0009A88A06C1A80002201385A80082861D8A3
:1017E00000F07EF815052327252A473E37002F4EA7
:1017F000300000F090F80500200031004C302A0045
:1018000000F078F829002000FFF7D0FF20E0012346
:10181000E364FF3323658023DB006365A0235B0063
:10182000A365234B1421E365EDE7FEF7A9FD002135
:10183000E9E7FEF7D9FDFAE720000021FFF7B6FF40
:10184000206D1C4B984203D921005431FEF788FCCF
:10185000F7BD2100626D5831206DFEF74DFCE6E7C3
:101860002000656D216D4C302A00FEF745FCA90073
:10187000C9E70026276D656DB54201DC6900C2E746
:1018800000213B000137FF375A1C18780192FEF700
:1018900029FD019B0100BB42F6D173004C33E0529D
:1018A0000136E9E701225A80C1E7C046801A0000EC
:1018B0000A785118FF5F000007480622030010B5A0
:1018C00047331A70FFF77CFF0448072203004733B1
:1018D0001A70FFF775FF10BDF40600207C08002089
:1018E00002B4714649084900095C49008E4402BCB3
:1018F0007047C046002310B59A4200D110BDCC5CA1
:10190000C4540133F8E703001218934200D1704722
:1019100019700133F9E70023C25C0133002AFBD1BF
:10192000581E70470CA0800040A0800044A080009A
:1019300048A0800012011002EF0201409A23150016
:1019400001420102030100000697FF0901A10115F0
:101950000026FF00750895400901810295400901A4
:10196000910295010901B102C04D4943524F4348CC
:10197000495000574C5230383955300000000000B3
:101980006919000073190000DD030020EB3C90553D
:101990004632205546322000020101000240007EFE
:1019A0003EF83F00010001000000000000000000C0
:1019B00080002942004200574C52303839553000DF
:1019C000000046415431362020203C21646F63746E
:1019D0007970652068746D6C3E0A3C68746D6C3E6D
:1019E0003C626F64793E3C7363726970743E0A6C4A
:1019F0006F636174696F6E2E7265706C61636528C8
:101A00002268747470733A2F2F7777772E6D69631D
:101A1000726F636869702E636F6D2F656E2D7573BD
:101A20002F70726F647563742F776C7230383975EC
:101A30003022293B0A3C2F7363726970743E3C2F3D
:101A4000626F64793E3C2F68746D6C3E0A00000042
:101A5000494E464F5F55463254585400801A000094
:101A6000494E44455820202048544D00CA190000D2
:101A700043555252454E5420554632000000000056
:101A800055463220426F6F746C6F6164657220310D
:101A90003862633865362D6469727479205346481C
:101AA000574F0D0A4D6F64656C3A20574C523038D1
:101AB0003955300D0A426F6172642D49443A2057FE
:101AC0004C5230383955300D0A0000000008000033
:101AD0003E800200020076312E31205B4172647537
:101AE000696E6F3A58595A5D204E6F762031352015
:101AF000323032352030313A33353A35380A0D003C
:101B00000600580A0D00590A0D005A00230A0D005C
:101B10000100000001C80000050F3900021810057F
:101B20000038B60834A909A0478BFDA0768815B601
:101B300065000101001C100500DF60DDD88945C784
:101B40004C9CD2659D9E648A9F00000306AA0002F9
:101B500000000000090299000501008032080B0016
:101B60000202020100090400000102020100052432
:101B700000100104240206052406000105240103C7
:101B800001070583030800FF09040100020A0000A1
:101B9000000705810240000007050202400000091D
:101BA00004020002080650000705840240000007F6
:101BB00005050240000009040300020300000009BB
:101BC00021000100012221000705860340000107D2
:101BD0000506034000010904040002FF2A01000772
:101BE00005870340000107050703400001000000CE
:101BF00009040300020300000300000000C201000A
:101C0000000008000A00000000000306AA00080007
:101C100002000400A0001400030057494E5553422F
:101C20000000000000000000000084000400070025
:101C30002A004400650076006900630065004900E1
:101C40006E0074006500720066006100630065004C
:101C500047005500490044007300000050007B001D
:101C600039003200430045003600340036003200AF
:101C70002D0039004300370037002D0034003600B6
:101C8000460045002D0039003300330042002D008E
:101C90003300310043004200390043003500420068
:101CA00042003300420039007D0000000000534232
:101CB00053550000000000000000000000800202F8
:101CC00020000000000000000000000000000000F4
:101CD000000000000000000000000000312E303045
:00000001FF
